{
  "_format": "hh-sol-artifact-1",
  "contractName": "LandToken",
  "sourceName": "contracts/LandToken.sol",
  "abi": [
    {
      "inputs": [],
      "stateMutability": "nonpayable",
      "type": "constructor"
    },
    {
      "anonymous": false,
      "inputs": [
        {
          "indexed": true,
          "internalType": "address",
          "name": "owner",
          "type": "address"
        },
        {
          "indexed": true,
          "internalType": "address",
          "name": "approved",
          "type": "address"
        },
        {
          "indexed": true,
          "internalType": "uint256",
          "name": "tokenId",
          "type": "uint256"
        }
      ],
      "name": "Approval",
      "type": "event"
    },
    {
      "anonymous": false,
      "inputs": [
        {
          "indexed": true,
          "internalType": "address",
          "name": "owner",
          "type": "address"
        },
        {
          "indexed": true,
          "internalType": "address",
          "name": "operator",
          "type": "address"
        },
        {
          "indexed": false,
          "internalType": "bool",
          "name": "approved",
          "type": "bool"
        }
      ],
      "name": "ApprovalForAll",
      "type": "event"
    },
    {
      "anonymous": false,
      "inputs": [
        {
          "indexed": true,
          "internalType": "bytes32",
          "name": "role",
          "type": "bytes32"
        },
        {
          "indexed": true,
          "internalType": "bytes32",
          "name": "previousAdminRole",
          "type": "bytes32"
        },
        {
          "indexed": true,
          "internalType": "bytes32",
          "name": "newAdminRole",
          "type": "bytes32"
        }
      ],
      "name": "RoleAdminChanged",
      "type": "event"
    },
    {
      "anonymous": false,
      "inputs": [
        {
          "indexed": true,
          "internalType": "bytes32",
          "name": "role",
          "type": "bytes32"
        },
        {
          "indexed": true,
          "internalType": "address",
          "name": "account",
          "type": "address"
        },
        {
          "indexed": true,
          "internalType": "address",
          "name": "sender",
          "type": "address"
        }
      ],
      "name": "RoleGranted",
      "type": "event"
    },
    {
      "anonymous": false,
      "inputs": [
        {
          "indexed": true,
          "internalType": "bytes32",
          "name": "role",
          "type": "bytes32"
        },
        {
          "indexed": true,
          "internalType": "address",
          "name": "account",
          "type": "address"
        },
        {
          "indexed": true,
          "internalType": "address",
          "name": "sender",
          "type": "address"
        }
      ],
      "name": "RoleRevoked",
      "type": "event"
    },
    {
      "anonymous": false,
      "inputs": [
        {
          "indexed": true,
          "internalType": "address",
          "name": "from",
          "type": "address"
        },
        {
          "indexed": true,
          "internalType": "address",
          "name": "to",
          "type": "address"
        },
        {
          "indexed": true,
          "internalType": "uint256",
          "name": "tokenId",
          "type": "uint256"
        }
      ],
      "name": "Transfer",
      "type": "event"
    },
    {
      "inputs": [],
      "name": "DEFAULT_ADMIN_ROLE",
      "outputs": [
        {
          "internalType": "bytes32",
          "name": "",
          "type": "bytes32"
        }
      ],
      "stateMutability": "view",
      "type": "function"
    },
    {
      "inputs": [],
      "name": "MINTER_ROLE",
      "outputs": [
        {
          "internalType": "bytes32",
          "name": "",
          "type": "bytes32"
        }
      ],
      "stateMutability": "view",
      "type": "function"
    },
    {
      "inputs": [
        {
          "internalType": "address",
          "name": "to",
          "type": "address"
        },
        {
          "internalType": "uint256",
          "name": "tokenId",
          "type": "uint256"
        }
      ],
      "name": "approve",
      "outputs": [],
      "stateMutability": "nonpayable",
      "type": "function"
    },
    {
      "inputs": [
        {
          "internalType": "address",
          "name": "owner",
          "type": "address"
        }
      ],
      "name": "balanceOf",
      "outputs": [
        {
          "internalType": "uint256",
          "name": "",
          "type": "uint256"
        }
      ],
      "stateMutability": "view",
      "type": "function"
    },
    {
      "inputs": [
        {
          "internalType": "uint256",
          "name": "",
          "type": "uint256"
        }
      ],
      "name": "defaultURIs",
      "outputs": [
        {
          "internalType": "string",
          "name": "",
          "type": "string"
        }
      ],
      "stateMutability": "view",
      "type": "function"
    },
    {
      "inputs": [
        {
          "internalType": "uint256",
          "name": "tokenId",
          "type": "uint256"
        }
      ],
      "name": "getApproved",
      "outputs": [
        {
          "internalType": "address",
          "name": "",
          "type": "address"
        }
      ],
      "stateMutability": "view",
      "type": "function"
    },
    {
      "inputs": [
        {
          "internalType": "bytes32",
          "name": "role",
          "type": "bytes32"
        }
      ],
      "name": "getRoleAdmin",
      "outputs": [
        {
          "internalType": "bytes32",
          "name": "",
          "type": "bytes32"
        }
      ],
      "stateMutability": "view",
      "type": "function"
    },
    {
      "inputs": [
        {
          "internalType": "bytes32",
          "name": "role",
          "type": "bytes32"
        },
        {
          "internalType": "address",
          "name": "account",
          "type": "address"
        }
      ],
      "name": "grantRole",
      "outputs": [],
      "stateMutability": "nonpayable",
      "type": "function"
    },
    {
      "inputs": [
        {
          "internalType": "bytes32",
          "name": "role",
          "type": "bytes32"
        },
        {
          "internalType": "address",
          "name": "account",
          "type": "address"
        }
      ],
      "name": "hasRole",
      "outputs": [
        {
          "internalType": "bool",
          "name": "",
          "type": "bool"
        }
      ],
      "stateMutability": "view",
      "type": "function"
    },
    {
      "inputs": [
        {
          "internalType": "address",
          "name": "owner",
          "type": "address"
        },
        {
          "internalType": "address",
          "name": "operator",
          "type": "address"
        }
      ],
      "name": "isApprovedForAll",
      "outputs": [
        {
          "internalType": "bool",
          "name": "",
          "type": "bool"
        }
      ],
      "stateMutability": "view",
      "type": "function"
    },
    {
      "inputs": [
        {
          "internalType": "address",
          "name": "to",
          "type": "address"
        },
        {
          "internalType": "uint8",
          "name": "tire",
          "type": "uint8"
        }
      ],
      "name": "mint",
      "outputs": [],
      "stateMutability": "nonpayable",
      "type": "function"
    },
    {
      "inputs": [],
      "name": "name",
      "outputs": [
        {
          "internalType": "string",
          "name": "",
          "type": "string"
        }
      ],
      "stateMutability": "view",
      "type": "function"
    },
    {
      "inputs": [
        {
          "internalType": "uint256",
          "name": "tokenId",
          "type": "uint256"
        }
      ],
      "name": "ownerOf",
      "outputs": [
        {
          "internalType": "address",
          "name": "",
          "type": "address"
        }
      ],
      "stateMutability": "view",
      "type": "function"
    },
    {
      "inputs": [
        {
          "internalType": "bytes32",
          "name": "role",
          "type": "bytes32"
        },
        {
          "internalType": "address",
          "name": "account",
          "type": "address"
        }
      ],
      "name": "renounceRole",
      "outputs": [],
      "stateMutability": "nonpayable",
      "type": "function"
    },
    {
      "inputs": [
        {
          "internalType": "bytes32",
          "name": "role",
          "type": "bytes32"
        },
        {
          "internalType": "address",
          "name": "account",
          "type": "address"
        }
      ],
      "name": "revokeRole",
      "outputs": [],
      "stateMutability": "nonpayable",
      "type": "function"
    },
    {
      "inputs": [
        {
          "internalType": "address",
          "name": "from",
          "type": "address"
        },
        {
          "internalType": "address",
          "name": "to",
          "type": "address"
        },
        {
          "internalType": "uint256",
          "name": "tokenId",
          "type": "uint256"
        }
      ],
      "name": "safeTransferFrom",
      "outputs": [],
      "stateMutability": "nonpayable",
      "type": "function"
    },
    {
      "inputs": [
        {
          "internalType": "address",
          "name": "from",
          "type": "address"
        },
        {
          "internalType": "address",
          "name": "to",
          "type": "address"
        },
        {
          "internalType": "uint256",
          "name": "tokenId",
          "type": "uint256"
        },
        {
          "internalType": "bytes",
          "name": "data",
          "type": "bytes"
        }
      ],
      "name": "safeTransferFrom",
      "outputs": [],
      "stateMutability": "nonpayable",
      "type": "function"
    },
    {
      "inputs": [
        {
          "internalType": "address",
          "name": "operator",
          "type": "address"
        },
        {
          "internalType": "bool",
          "name": "approved",
          "type": "bool"
        }
      ],
      "name": "setApprovalForAll",
      "outputs": [],
      "stateMutability": "nonpayable",
      "type": "function"
    },
    {
      "inputs": [
        {
          "internalType": "uint256[]",
          "name": "_tires",
          "type": "uint256[]"
        },
        {
          "internalType": "string[]",
          "name": "_defaultURIs",
          "type": "string[]"
        }
      ],
      "name": "setDefaultURI",
      "outputs": [],
      "stateMutability": "nonpayable",
      "type": "function"
    },
    {
      "inputs": [
        {
          "internalType": "uint256",
          "name": "tokenId",
          "type": "uint256"
        },
        {
          "internalType": "string",
          "name": "_tokenURI",
          "type": "string"
        }
      ],
      "name": "setTokenURI",
      "outputs": [],
      "stateMutability": "nonpayable",
      "type": "function"
    },
    {
      "inputs": [
        {
          "internalType": "bytes4",
          "name": "interfaceId",
          "type": "bytes4"
        }
      ],
      "name": "supportsInterface",
      "outputs": [
        {
          "internalType": "bool",
          "name": "",
          "type": "bool"
        }
      ],
      "stateMutability": "view",
      "type": "function"
    },
    {
      "inputs": [],
      "name": "symbol",
      "outputs": [
        {
          "internalType": "string",
          "name": "",
          "type": "string"
        }
      ],
      "stateMutability": "view",
      "type": "function"
    },
    {
      "inputs": [
        {
          "internalType": "uint256",
          "name": "",
          "type": "uint256"
        }
      ],
      "name": "tires",
      "outputs": [
        {
          "internalType": "uint8",
          "name": "",
          "type": "uint8"
        }
      ],
      "stateMutability": "view",
      "type": "function"
    },
    {
      "inputs": [],
      "name": "tokenCounter",
      "outputs": [
        {
          "internalType": "uint256",
          "name": "",
          "type": "uint256"
        }
      ],
      "stateMutability": "view",
      "type": "function"
    },
    {
      "inputs": [
        {
          "internalType": "uint256",
          "name": "tokenId",
          "type": "uint256"
        }
      ],
      "name": "tokenURI",
      "outputs": [
        {
          "internalType": "string",
          "name": "",
          "type": "string"
        }
      ],
      "stateMutability": "view",
      "type": "function"
    },
    {
      "inputs": [
        {
          "internalType": "uint256",
          "name": "",
          "type": "uint256"
        }
      ],
      "name": "tokenURIs",
      "outputs": [
        {
          "internalType": "string",
          "name": "",
          "type": "string"
        }
      ],
      "stateMutability": "view",
      "type": "function"
    },
    {
      "inputs": [
        {
          "internalType": "address",
          "name": "from",
          "type": "address"
        },
        {
          "internalType": "address",
          "name": "to",
          "type": "address"
        },
        {
          "internalType": "uint256",
          "name": "tokenId",
          "type": "uint256"
        }
      ],
      "name": "transferFrom",
      "outputs": [],
      "stateMutability": "nonpayable",
      "type": "function"
    }
  ],
  "bytecode": "0x60806040527f9f2df0fed2c77648de5860a4cc508cd0818c85b8b8a1ab4ceeef8d981c8956a66007556001600b553480156200003a57600080fd5b5060408051808201825260098152682630b7322a37b5b2b760b91b6020808301918252835180850190945260048452631310539160e21b908401528151919291620000889160009162000179565b5080516200009e90600190602084019062000179565b50620000b091506000905033620000c5565b600754620000bf9033620000c5565b6200025c565b620000d18282620000d5565b5050565b60008281526006602090815260408083206001600160a01b038516845290915290205460ff16620000d15760008281526006602090815260408083206001600160a01b03851684529091529020805460ff19166001179055620001353390565b6001600160a01b0316816001600160a01b0316837f2f8788117e7eff1d82e926ec794901d17c78024a50270940304540a733656f0d60405160405180910390a45050565b82805462000187906200021f565b90600052602060002090601f016020900481019282620001ab5760008555620001f6565b82601f10620001c657805160ff1916838001178555620001f6565b82800160010185558215620001f6579182015b82811115620001f6578251825591602001919060010190620001d9565b506200020492915062000208565b5090565b5b8082111562000204576000815560010162000209565b600181811c908216806200023457607f821691505b602082108114156200025657634e487b7160e01b600052602260045260246000fd5b50919050565b611df6806200026c6000396000f3fe608060405234801561001057600080fd5b50600436106101a95760003560e01c80636c8b703f116100f9578063b88d4fde11610097578063d082e38111610071578063d082e381146103be578063d5391393146103c7578063d547741f146103d0578063e985e9c5146103e357600080fd5b8063b88d4fde14610385578063bd34e64e14610398578063c87b56dd146103ab57600080fd5b806391d14854116100d357806391d148541461034f57806395d89b4114610362578063a217fddf1461036a578063a22cb4651461037257600080fd5b80636c8b703f146102f457806370a082311461030757806386e33b8c1461031a57600080fd5b8063248a9ca31161016657806342842e0e1161014057806342842e0e146102a85780636352211e146102bb578063691562a0146102ce578063696b8971146102e157600080fd5b8063248a9ca3146102515780632f2ff15d1461028257806336568abe1461029557600080fd5b806301ffc9a7146101ae57806306fdde03146101d6578063081812fc146101eb578063095ea7b314610216578063162094c41461022b57806323b872dd1461023e575b600080fd5b6101c16101bc366004611626565b61041f565b60405190151581526020015b60405180910390f35b6101de610430565b6040516101cd919061169b565b6101fe6101f93660046116ae565b6104c2565b6040516001600160a01b0390911681526020016101cd565b6102296102243660046116e3565b6104e9565b005b6102296102393660046117cc565b610604565b61022961024c366004611813565b61064b565b61027461025f3660046116ae565b60009081526006602052604090206001015490565b6040519081526020016101cd565b61022961029036600461184f565b61067c565b6102296102a336600461184f565b6106a1565b6102296102b6366004611813565b61071f565b6101fe6102c93660046116ae565b61073a565b6102296102dc36600461187b565b61079a565b6101de6102ef3660046116ae565b610808565b6101de6103023660046116ae565b6108a2565b6102746103153660046118b8565b6108bb565b61033d6103283660046116ae565b600a6020526000908152604090205460ff1681565b60405160ff90911681526020016101cd565b6101c161035d36600461184f565b610941565b6101de61096c565b610274600081565b6102296103803660046118d3565b61097b565b610229610393366004611904565b610986565b6102296103a6366004611a34565b6109be565b6101de6103b93660046116ae565b610a9f565b610274600b5481565b61027460075481565b6102296103de36600461184f565b610b8b565b6101c16103f1366004611ae3565b6001600160a01b03918216600090815260056020908152604080832093909416825291909152205460ff1690565b600061042a82610bb0565b92915050565b60606000805461043f90611b0d565b80601f016020809104026020016040519081016040528092919081815260200182805461046b90611b0d565b80156104b85780601f1061048d576101008083540402835291602001916104b8565b820191906000526020600020905b81548152906001019060200180831161049b57829003601f168201915b5050505050905090565b60006104cd82610bd5565b506000908152600460205260409020546001600160a01b031690565b60006104f48261073a565b9050806001600160a01b0316836001600160a01b031614156105675760405162461bcd60e51b815260206004820152602160248201527f4552433732313a20617070726f76616c20746f2063757272656e74206f776e656044820152603960f91b60648201526084015b60405180910390fd5b336001600160a01b0382161480610583575061058381336103f1565b6105f55760405162461bcd60e51b815260206004820152603d60248201527f4552433732313a20617070726f76652063616c6c6572206973206e6f7420746f60448201527f6b656e206f776e6572206f7220617070726f76656420666f7220616c6c000000606482015260840161055e565b6105ff8383610c37565b505050565b61061060075433610941565b61062c5760405162461bcd60e51b815260040161055e90611b48565b600082815260086020908152604090912082516105ff92840190611577565b6106553382610ca5565b6106715760405162461bcd60e51b815260040161055e90611b78565b6105ff838383610d24565b60008281526006602052604090206001015461069781610e88565b6105ff8383610e92565b6001600160a01b03811633146107115760405162461bcd60e51b815260206004820152602f60248201527f416363657373436f6e74726f6c3a2063616e206f6e6c792072656e6f756e636560448201526e103937b632b9903337b91039b2b63360891b606482015260840161055e565b61071b8282610f18565b5050565b6105ff83838360405180602001604052806000815250610986565b6000818152600260205260408120546001600160a01b03168061042a5760405162461bcd60e51b8152602060048201526018602482015277115490cdcc8c4e881a5b9d985b1a59081d1bdad95b88125160421b604482015260640161055e565b6107a660075433610941565b6107c25760405162461bcd60e51b815260040161055e90611b48565b6107ce82600b54610f7f565b600b80546000908152600a60205260408120805460ff191660ff8516179055815460019291906107ff908490611bdb565b90915550505050565b6009602052600090815260409020805461082190611b0d565b80601f016020809104026020016040519081016040528092919081815260200182805461084d90611b0d565b801561089a5780601f1061086f5761010080835404028352916020019161089a565b820191906000526020600020905b81548152906001019060200180831161087d57829003601f168201915b505050505081565b6008602052600090815260409020805461082190611b0d565b60006001600160a01b0382166109255760405162461bcd60e51b815260206004820152602960248201527f4552433732313a2061646472657373207a65726f206973206e6f7420612076616044820152683634b21037bbb732b960b91b606482015260840161055e565b506001600160a01b031660009081526003602052604090205490565b60009182526006602090815260408084206001600160a01b0393909316845291905290205460ff1690565b60606001805461043f90611b0d565b61071b33838361110a565b6109903383610ca5565b6109ac5760405162461bcd60e51b815260040161055e90611b78565b6109b8848484846111d9565b50505050565b6109ca60075433610941565b6109e65760405162461bcd60e51b815260040161055e90611b48565b8051825114610a275760405162461bcd60e51b815260206004820152600d60248201526c125b9d985b1a59081a5b9c1d5d609a1b604482015260640161055e565b60005b82518110156105ff57818181518110610a4557610a45611bf3565b602002602001015160096000858481518110610a6357610a63611bf3565b602002602001015181526020019081526020016000209080519060200190610a8c929190611577565b5080610a9781611c09565b915050610a2a565b6000818152600860205260409020805460609190610abc90611b0d565b15159050610b72576000828152600a602090815260408083205460ff168352600990915290208054610aed90611b0d565b80601f0160208091040260200160405190810160405280929190818152602001828054610b1990611b0d565b8015610b665780601f10610b3b57610100808354040283529160200191610b66565b820191906000526020600020905b815481529060010190602001808311610b4957829003601f168201915b50505050509050919050565b60008281526008602052604090208054610aed90611b0d565b600082815260066020526040902060010154610ba681610e88565b6105ff8383610f18565b60006001600160e01b03198216637965db0b60e01b148061042a575061042a8261120c565b6000818152600260205260409020546001600160a01b0316610c345760405162461bcd60e51b8152602060048201526018602482015277115490cdcc8c4e881a5b9d985b1a59081d1bdad95b88125160421b604482015260640161055e565b50565b600081815260046020526040902080546001600160a01b0319166001600160a01b0384169081179091558190610c6c8261073a565b6001600160a01b03167f8c5be1e5ebec7d5bd14f71427d1e84f3dd0314c0f7b2291e5b200ac8c7c3b92560405160405180910390a45050565b600080610cb18361073a565b9050806001600160a01b0316846001600160a01b03161480610cf857506001600160a01b0380821660009081526005602090815260408083209388168352929052205460ff165b80610d1c5750836001600160a01b0316610d11846104c2565b6001600160a01b0316145b949350505050565b826001600160a01b0316610d378261073a565b6001600160a01b031614610d5d5760405162461bcd60e51b815260040161055e90611c24565b6001600160a01b038216610dbf5760405162461bcd60e51b8152602060048201526024808201527f4552433732313a207472616e7366657220746f20746865207a65726f206164646044820152637265737360e01b606482015260840161055e565b826001600160a01b0316610dd28261073a565b6001600160a01b031614610df85760405162461bcd60e51b815260040161055e90611c24565b600081815260046020908152604080832080546001600160a01b03199081169091556001600160a01b0387811680865260038552838620805460001901905590871680865283862080546001019055868652600290945282852080549092168417909155905184937fddf252ad1be2c89b69c2b068fc378daa952ba7f163c4a11628f55a4df523b3ef91a4505050565b610c34813361125c565b610e9c8282610941565b61071b5760008281526006602090815260408083206001600160a01b03851684529091529020805460ff19166001179055610ed43390565b6001600160a01b0316816001600160a01b0316837f2f8788117e7eff1d82e926ec794901d17c78024a50270940304540a733656f0d60405160405180910390a45050565b610f228282610941565b1561071b5760008281526006602090815260408083206001600160a01b0385168085529252808320805460ff1916905551339285917ff6391f5c32d9c69d2a47ea670b442974b53935d1edc7fd64eb21e047a839171b9190a45050565b6001600160a01b038216610fd55760405162461bcd60e51b815260206004820181905260248201527f4552433732313a206d696e7420746f20746865207a65726f2061646472657373604482015260640161055e565b6000818152600260205260409020546001600160a01b03161561103a5760405162461bcd60e51b815260206004820152601c60248201527f4552433732313a20746f6b656e20616c7265616479206d696e74656400000000604482015260640161055e565b6000818152600260205260409020546001600160a01b03161561109f5760405162461bcd60e51b815260206004820152601c60248201527f4552433732313a20746f6b656e20616c7265616479206d696e74656400000000604482015260640161055e565b6001600160a01b038216600081815260036020908152604080832080546001019055848352600290915280822080546001600160a01b0319168417905551839291907fddf252ad1be2c89b69c2b068fc378daa952ba7f163c4a11628f55a4df523b3ef908290a45050565b816001600160a01b0316836001600160a01b0316141561116c5760405162461bcd60e51b815260206004820152601960248201527f4552433732313a20617070726f766520746f2063616c6c657200000000000000604482015260640161055e565b6001600160a01b03838116600081815260056020908152604080832094871680845294825291829020805460ff191686151590811790915591519182527f17307eab39ab6107e8899845ad3d59bd9653f200f220920489ca2b5937696c31910160405180910390a3505050565b6111e4848484610d24565b6111f0848484846112b5565b6109b85760405162461bcd60e51b815260040161055e90611c69565b60006001600160e01b031982166380ac58cd60e01b148061123d57506001600160e01b03198216635b5e139f60e01b145b8061042a57506301ffc9a760e01b6001600160e01b031983161461042a565b6112668282610941565b61071b57611273816113c2565b61127e8360206113d4565b60405160200161128f929190611cbb565b60408051601f198184030181529082905262461bcd60e51b825261055e9160040161169b565b60006001600160a01b0384163b156113b757604051630a85bd0160e11b81526001600160a01b0385169063150b7a02906112f9903390899088908890600401611d30565b602060405180830381600087803b15801561131357600080fd5b505af1925050508015611343575060408051601f3d908101601f1916820190925261134091810190611d6d565b60015b61139d573d808015611371576040519150601f19603f3d011682016040523d82523d6000602084013e611376565b606091505b5080516113955760405162461bcd60e51b815260040161055e90611c69565b805181602001fd5b6001600160e01b031916630a85bd0160e11b149050610d1c565b506001949350505050565b606061042a6001600160a01b03831660145b606060006113e3836002611d8a565b6113ee906002611bdb565b67ffffffffffffffff8111156114065761140661170d565b6040519080825280601f01601f191660200182016040528015611430576020820181803683370190505b509050600360fc1b8160008151811061144b5761144b611bf3565b60200101906001600160f81b031916908160001a905350600f60fb1b8160018151811061147a5761147a611bf3565b60200101906001600160f81b031916908160001a905350600061149e846002611d8a565b6114a9906001611bdb565b90505b6001811115611521576f181899199a1a9b1b9c1cb0b131b232b360811b85600f16601081106114dd576114dd611bf3565b1a60f81b8282815181106114f3576114f3611bf3565b60200101906001600160f81b031916908160001a90535060049490941c9361151a81611da9565b90506114ac565b5083156115705760405162461bcd60e51b815260206004820181905260248201527f537472696e67733a20686578206c656e67746820696e73756666696369656e74604482015260640161055e565b9392505050565b82805461158390611b0d565b90600052602060002090601f0160209004810192826115a557600085556115eb565b82601f106115be57805160ff19168380011785556115eb565b828001600101855582156115eb579182015b828111156115eb5782518255916020019190600101906115d0565b506115f79291506115fb565b5090565b5b808211156115f757600081556001016115fc565b6001600160e01b031981168114610c3457600080fd5b60006020828403121561163857600080fd5b813561157081611610565b60005b8381101561165e578181015183820152602001611646565b838111156109b85750506000910152565b60008151808452611687816020860160208601611643565b601f01601f19169290920160200192915050565b602081526000611570602083018461166f565b6000602082840312156116c057600080fd5b5035919050565b80356001600160a01b03811681146116de57600080fd5b919050565b600080604083850312156116f657600080fd5b6116ff836116c7565b946020939093013593505050565b634e487b7160e01b600052604160045260246000fd5b604051601f8201601f1916810167ffffffffffffffff8111828210171561174c5761174c61170d565b604052919050565b600067ffffffffffffffff83111561176e5761176e61170d565b611781601f8401601f1916602001611723565b905082815283838301111561179557600080fd5b828260208301376000602084830101529392505050565b600082601f8301126117bd57600080fd5b61157083833560208501611754565b600080604083850312156117df57600080fd5b82359150602083013567ffffffffffffffff8111156117fd57600080fd5b611809858286016117ac565b9150509250929050565b60008060006060848603121561182857600080fd5b611831846116c7565b925061183f602085016116c7565b9150604084013590509250925092565b6000806040838503121561186257600080fd5b82359150611872602084016116c7565b90509250929050565b6000806040838503121561188e57600080fd5b611897836116c7565b9150602083013560ff811681146118ad57600080fd5b809150509250929050565b6000602082840312156118ca57600080fd5b611570826116c7565b600080604083850312156118e657600080fd5b6118ef836116c7565b9150602083013580151581146118ad57600080fd5b6000806000806080858703121561191a57600080fd5b611923856116c7565b9350611931602086016116c7565b925060408501359150606085013567ffffffffffffffff81111561195457600080fd5b8501601f8101871361196557600080fd5b61197487823560208401611754565b91505092959194509250565b600067ffffffffffffffff82111561199a5761199a61170d565b5060051b60200190565b600082601f8301126119b557600080fd5b813560206119ca6119c583611980565b611723565b82815260059290921b840181019181810190868411156119e957600080fd5b8286015b84811015611a2957803567ffffffffffffffff811115611a0d5760008081fd5b611a1b8986838b01016117ac565b8452509183019183016119ed565b509695505050505050565b60008060408385031215611a4757600080fd5b823567ffffffffffffffff80821115611a5f57600080fd5b818501915085601f830112611a7357600080fd5b81356020611a836119c583611980565b82815260059290921b84018101918181019089841115611aa257600080fd5b948201945b83861015611ac057853582529482019490820190611aa7565b96505086013592505080821115611ad657600080fd5b50611809858286016119a4565b60008060408385031215611af657600080fd5b611aff836116c7565b9150611872602084016116c7565b600181811c90821680611b2157607f821691505b60208210811415611b4257634e487b7160e01b600052602260045260246000fd5b50919050565b60208082526016908201527521b0b63632b91034b9903737ba10309036b4b73a32b960511b604082015260600190565b6020808252602d908201527f4552433732313a2063616c6c6572206973206e6f7420746f6b656e206f776e6560408201526c1c881bdc88185c1c1c9bdd9959609a1b606082015260800190565b634e487b7160e01b600052601160045260246000fd5b60008219821115611bee57611bee611bc5565b500190565b634e487b7160e01b600052603260045260246000fd5b6000600019821415611c1d57611c1d611bc5565b5060010190565b60208082526025908201527f4552433732313a207472616e736665722066726f6d20696e636f72726563742060408201526437bbb732b960d91b606082015260800190565b60208082526032908201527f4552433732313a207472616e7366657220746f206e6f6e20455243373231526560408201527131b2b4bb32b91034b6b83632b6b2b73a32b960711b606082015260800190565b7f416363657373436f6e74726f6c3a206163636f756e7420000000000000000000815260008351611cf3816017850160208801611643565b7001034b99036b4b9b9b4b733903937b6329607d1b6017918401918201528351611d24816028840160208801611643565b01602801949350505050565b6001600160a01b0385811682528416602082015260408101839052608060608201819052600090611d639083018461166f565b9695505050505050565b600060208284031215611d7f57600080fd5b815161157081611610565b6000816000190483118215151615611da457611da4611bc5565b500290565b600081611db857611db8611bc5565b50600019019056fea26469706673582212208b8933606f90c193e5f85d350e0819a1c46bf41081525a1008cde8faaef5d6cb64736f6c63430008080033",
  "linkReferences": {},
  "deployedLinkReferences": {}
}